:1000000000800020BD01000095180000511800007C
:10001000511800005118000051180000511800003C
:1000200051180000511800005118000095180000E8
:100030009518000051180000FD270000012800005D
:1000400095180000951800009518000095180000FC
:1000500095180000951800009518000095180000EC
:1000600095180000951800009518000095180000DC
:1000700095180000951800009518000095180000CC
:1000800095180000951800009518000095180000BC
:1000900095180000951800009518000095180000AC
:1000A000951800009518000095180000951800009C
:1000B000951800009518000095180000951800008C
:1000C000951800009518000095180000951800007C
:1000D000951800009518000095180000951800006C
:1000E000951800009518000095180000951800005C
:1000F000951800009518000095180000951800004C
:10010000951800009518000095180000951800003B
:10011000951800009518000095180000951800002B
:100120009518000071050000951800009518000052
:10013000951800009518000095180000951800000B
:1001400095180000951800009518000095180000FB
:10015000F914000015150000311500004D150000C0
:1001600095180000C91D00009518000095180000A2
:1001700095180000951800009518000095180000CB
:1001800095180000951800009518000095180000BB
:1001900095180000951800009518000095180000AB
:1001A000951800009518000095180000951800009B
:1001B000951800009518000095180000574B4CF258
:1001C000205210B5DA814DF62812DA8100BF00BF47
:1001D00001F064FB524B4FF010621A63514A9A636C
:1001E000514ADA63514A136913F4807303D153619E
:1001F0004FF4A85313614E4B9A78110703D59A78A0
:1002000042F008029A704B4B4B482A221A704B4B13
:10021000DA1C121AC11E22F00302994288BF002282
:10022000474902F0F5FA474B4748DA1C121AC11E3B
:1002300022F00302994288BF0022002103F0EEF968
:10024000424943484FF4DE7202F0E2FA414B424A1F
:10025000802103F8011B9342FBD14FF0E0233C4A7D
:10026000C3F8082D3D4B8A221A70A3F5805324222F
:100270005A70A0221A709A799207FCD59A79D406FE
:10028000FCD4374B9A7902F00C02082AFAD10322E7
:100290001A7140225A719A799006FCD5304A9379A6
:1002A0005906FCD51E4B2F4959640221996420211F
:1002B0001170917901F00C010C29FAD12A4A5A6087
:1002C0004FF0E023294A5A6100229A6107221A61FD
:1002D000274AC3F8202D62B601F036FB134B5B6949
:1002E000DA0705D5234801F023FB234B234ADA61C3
:1002F000234B1B785B0609D51F4C204BE2699A42C1
:1003000004D11C4801F014FB0023E36101F0CCFA96
:1003100003F0EEF901F094FAFEE700BF002005407B
:1003200000800440823F04000100002B00D0034005
:1003300000D0074000E007402087FF1F588DFF1FB7
:100340007C920100B896FF1F588DFF1F000000002F
:100350000082FF1F00E400E05FE400E00050064080
:100360000040064000000301C0100500FF760100B8
:10037000000020209534C86900E00340A5C3945ACA
:1003800000F00740FFFFFFFFFFFFFFFFFFFFFFFF42
:10039000FFFFFFFFFFFFFFFFFFFFFFFFFFFFFFFF6D
:1003A000FFFFFFFFFFFFFFFFFFFFFFFFFFFFFFFF5D
:1003B000FFFFFFFFFFFFFFFFFFFFFFFFFFFFFFFF4D
:1003C000FFFFFFFFFFFFFFFFFFFFFFFFFFFFFFFF3D
:1003D000FFFFFFFFFFFFFFFFFFFFFFFFFFFFFFFF2D
:1003E000FFFFFFFFFFFFFFFFFFFFFFFFFFFFFFFF1D
:1003F000FFFFFFFFFFFFFFFFFFFFFFFFFFFFFFFF0D
:10040000FFFFFFFFFFFFFFFFFFFFFFFFDEF9FFFF23
:100410000548064B1B1AD90F01EBA301491002D066
:10042000034B03B118477047588DFF1F588DFF1FAE
:100430000000000008B5054B1BB105490548AFF3A6
:100440000080BDE80840FFF7E3BF00BF00000000E8
:10045000588DFF1FF43C0000036818470B680360C9
:10046000704700BF0B680360704700BF704700BF54
:1004700010B5044600F0F4FF204610BD0C4B93F875
:1004800000144A1CD2B253F8211083F8002452B948
:1004900093F80204D3F8042480F00100013283F8B9
:1004A0000204C3F8042401F50061282001F09EBA7B
:1004B000748DFF1F70B5942001F00EFA0A4D0B4E9B
:1004C000044600F029FCD4F8840034602946FF2259
:1004D00000F0AEFE33682946D3F88800BDE87040CE
:1004E000FF2200F0A5BE00BF710500007C91FF1F38
:1004F00038B50A4C0A4D23680146D3F884002970A8
:1005000000F0BEFE074B297880F0010252B21A704B
:100510002068BDE8384000F02DBC00BF7C91FF1F73
:10052000718DFF1F708DFF1F0F498B695A1C13D0EF
:10053000CA5C82B052B28DF807209DF80720013BBB
:100540008B6153B2094A002B137001DA02B0704775
:10055000107802B0FFF7CCBF044A002B137000DA0A
:1005600070471078FFF7C4BFB491FF1F3087FF1F9B
:1005700010B5264C264A237853B9264B26491868CD
:1005800092F90020097800F0F5FB0123237010BDDB
:10059000204B92F90010186800F042FC1F4B1B78AA
:1005A0001A46172A80B25BB20CD91A3B0E2B13D80D
:1005B000DFE803F01517191B1D1F1212272921232D
:1005C000121225000E3AD2B2154B23F81200FFF793
:1005D000ABFF0023237010BD183AD2B2F4E70F220C
:1005E000F2E71022F0E71122EEE71222ECE71322E5
:1005F000EAE71422E8E70C22E6E70D22E4E70E2200
:10060000E2E70A22E0E70B22DEE700BFD491FF1FFA
:10061000708DFF1F7C91FF1F718DFF1F3087FF1FA3
:100620008891FF1F08B5054B1B781B0600D408BD39
:10063000FFF77AFF024B00221A7008BD3087FF1FB8
:10064000D491FF1F10B504468CB00020FFF732FF95
:10065000114A4FF400430C2093FBF4F3013B138049
:1006600001F0D6FA0D4B0E4A009302A908A8069392
:100670000292FFF7F3FE4FF4B76206A9094800F0B3
:1006800081FE069B08A8DB689847009B02A8DB68F0
:1006900098470CB010BD00BFD291FF1FBC3A0000BC
:1006A0007D0400008091FF1FF0B101281BD10F29AC
:1006B00018D8DFE811F0A5009D0095008D00850099
:1006C0007D0075006D0065005D0055004D00450022
:1006D0003D00350010008A498A4B8B48886040F6FF
:1006E000AB221A60704770470F29FBD8DFE811F082
:1006F00090009800A000A800B000B800C000C8009A
:10070000D000D800E000E800F000F8000001100080
:100710007B497C4B7D48886040F6AB221A6070476D
:100720007749784B7A48886040F6AB221A60704768
:100730007349744B7748886040F6AB221A60704763
:100740006F49704B7448886040F6AB221A6070475E
:100750006B496C4B7148886040F6AB221A60704759
:100760006749684B6E48886040F6AB221A60704754
:100770006349644B6B48886040F6AB221A6070474F
:100780005F49604B6848886040F6AB221A6070474A
:100790005B495C4B6548886040F6AB221A60704745
:1007A0005749584B6248886040F6AB221A60704740
:1007B0005349544B5F48886040F6AB221A6070473B
:1007C0004F49504B5C48886040F6AB221A60704736
:1007D0004B494C4B5948886040F6AB221A60704731
:1007E0004749484B5648886040F6AB221A6070472C
:1007F0004349444B5348886040F6AB221A60704727
:100800003F49404B5048886040F6AB221A60704721
:100810003B493C4B4D48886040F6AB221A6070471C
:100820003749384B4A48886040F6AB221A60704717
:100830003349344B4748886040F6AB221A60704712
:100840002F49304B4448886040F6AB221A6070470D
:100850002B492C4B4148886040F6AB221A60704708
:100860002749284B3E48886040F6AB221A60704703
:100870002349244B3B48886040F6AB221A607047FE
:100880001F49204B3848886040F6AB221A607047F9
:100890001B491C4B3548886040F6AB221A607047F4
:1008A0001749184B3248886040F6AB221A607047EF
:1008B0001349144B2F48886040F6AB221A607047EA
:1008C0000F49104B2C48886040F6AB221A607047E5
:1008D0000B490C4B2948886040F6AB221A607047E0
:1008E0000749084B2648886040F6AB221A607047DB
:1008F0000349044B2348886040F6AB221A607047D6
:10090000D891FF1F3487FF1FC887010008DD000052
:100910001C7D010070720100C4670100185D0100B8
:100920006C520100C0470100143D01006832010013
:10093000BC270100101D010064120100B80701006E
:100940000CFD000060F20000B4E70000F43C000081
:10095000A04700004C520000F85C0000A4670000B3
:1009600050720000FC7C0000A88700005492000038
:10097000009D0000ACA7000058B2000004BD0000BC
:10098000B0C700005CD200002DE9F04F044683B0F0
:100990000F2000F0C5FE8046102000F0C1FE834607
:1009A000112000F0BDFE0546122000F0B9FE0646FB
:1009B000132000F0B5FE8146142000F0B1FE07467A
:1009C000152000F0ADFE8246162000F0A9FE019031
:1009D000042001F02BF9ABF50073434440F2FF3BD8
:1009E0005B45A8BF5B46804623EAE370464BC3F8ED
:1009F000008002F009F9454902F05AF9444902F031
:100A00000BFA4FF0785102F04BF8A6F500732B4427
:100A10005B45A8BF5B46A7F500774F4423EAE37325
:100A20005F45DFF8F090C3EBC303A8BF5F4603F256
:100A3000FF13054627EAE77089FB0376D91733448D
:100A4000C1EB6323344951F82360344B1D60344BB0
:100A50001E6002F0D9F84FF07D5102F029F92C49BF
:100A600002F0DAF94FF07D5102F01AF82D4B0746EB
:100A70001860002C33D1019BA3F5007353445B45F0
:100A8000A8BF5B4623EAE373C3EB031303F2FF1330
:100A900089FB03299944DB17C3EB6921224B4046AC
:100AA0001960FFF701FE2946304602F001F9394688
:100AB00002F0FEF81D4B0021186002F0ABFA40B1C5
:100AC00000201B491B4B086001221A7003B0BDE8CF
:100AD000F08F194B1868013802F096F8F1E71748C3
:100AE000174C184A0368216801601068206083EA87
:100AF000034383EA53134140594081EA43011160A3
:100B0000C1F30331CAE700BFF091FF1F0000384076
:100B100000C07F44030820804887FF1F4087FF1FD5
:100B20003887FF1F3C87FF1FF491FF1F4487FF1F7B
:100B30000092FF1F0492FF1F3487FF1F2487FF1FAF
:100B40002887FF1F2C87FF1F08B50021022001F016
:100B50007BF80021032001F077F80021042001F048
:100B600073F801210D2001F06FF81720012101F029
:100B70006BF8BDE808404FF48070FFF763BD00BF1D
:100B800038B5022001F052F8104C114D03460320F5
:100B9000236001F04BF80F4A2368116828608B42EC
:100BA0000D49136018BF5D1E0C681ABFB5FA85F5B4
:100BB0006D090025A04202D00128086002D005B9C5
:100BC00038BD0020BDE83840FFF7DEBE0892FF1FA9
:100BD0000C92FF1FF891FF1FFC91FF1FF8B51A4DF3
:100BE0002C780CB3194E3768384602F027FA031EEA
:100BF00020DB174A12689A421CDD164A1649926891
:100C00000868D4563946C4EB041401F049FFE400E7
:100C100084EAE471A1EBE47130600911241117201A
:100C200000F0E4FE2046F8BD2146172000F0DEFE6D
:100C30002046F8BD00231C46194617202B7000F0F3
:100C4000D5FE2046F8BD00BF0492FF1F0092FF1F93
:100C50003487FF1FD891FF1F4487FF1F10B5164C24
:100C600094F8012494F800349A4216D0134A138859
:100C7000D3B1013B1380FFF7B1FF94F80124531C5B
:100C8000DBB244F8220084F801342BB994F8033421
:100C900083F0010384F8033410BD94F8032494F81E
:100CA00002349A42E2D010BD054B1B881380FFF737
:100CB00067FFFFF7B7FCDEE7748DFF1FD091FF1FC2
:100CC000D291FF1FFFF7CABF0B480C4A0C4910B561
:100CD000802300240371046001F0D6FE094A0A480B
:100CE0000A4BC0F800444FF0FF3191610849094AAE
:100CF00099605A611C7310BD8091FF1F2087FF1FF0
:100D000071040000B491FF1F748DFF1FD891FF1F65
:100D1000F43C00000000AA0A30B583B00F490091EE
:100D200004460F4B0F4A002100F068FA04F1400519
:100D30000D4900910D4B0E4A0121284600F05EFA44
:100D40000223204684F88030C4F88440C4F88850D8
:100D5000C4F88C40C4F8905003B030BD00B00340DC
:100D6000CC3A0000D43A000000B00B40D03A00006A
:100D7000003B0000531C70B5044611D052B1012A4B
:100D800029D0D0F88420D38A9BB243F00103D382C8
:100D9000002070BDBDE87040D0F8840000F09ABA21
:100DA000D0F884000D4600F06BFA29460646D4F8C8
:100DB000880000F065FAA6B118B3D4F88430D4F8EE
:100DC0008800597D427D9142294606D8BDE8704091
:100DD000184600F07FBAD0F88800BDE8704000F0F7
:100DE00079BAA8B9D4F88410D4F88820CB8A9BB2F9
:100DF00043F00403CB82D38A9BB243F00403D38233
:100E0000C6E7D4F884002946BDE8704000F062BA15
:100E1000D4F888002946BDE8704000F05BBA00BFF6
:100E200001290CBFD0F88830D0F884305B6B18698A
:100E300000B2704790F823308B420AD070B4092971
:100E400000F29380DFE801F02F2F61060671818E9A
:100E500040547047436B4FEA431C0CF1844C0CF533
:100E600080730CF5C07C00240122CCF808202646B3
:100E7000DC610025CCF80C501E605D605C619A61FD
:100E800080F8231072B6436B5B0103F184430122A7
:100E900000214276C3F89C14C3F89824C3F89C241C
:100EA00062B670BC7047436B4FEA431C0CF1844C34
:100EB0000CF580730CF5C07C0022CCF808200122D0
:100EC000DA6114461646D4E7436B00245A0102F156
:100ED000844202F58073C2F8884102F5C072DC6179
:100EE0000124D46000225C601C609A615A61C7E7EB
:100EF000436B5A0102F1844202F5807302F5C0721D
:100F0000012494600024DC61EAE7436B4FEA431C50
:100F10000CF1844C0CF580730CF5C07C002601228A
:100F2000CCF808601446DE61A3E7436B4FEA431C2C
:100F30000CF1844C0CF580730CF5C07C002201246C
:100F4000CCF808401646DA6193E7436B5A0102F188
:100F5000844202F5807302F5C0720024946001247B
:100F6000DC61BDE7436B0124B0E7C38A9BB243F069
:100F70000103C38295E700BF436B5B0103F1844328
:100F800010B5D3F89C2403F59063044652B101F0E8
:100F90009BFB636B5B0103F1844303F59063DA69A8
:100FA000002AF4D19B6923B1E38A9BB243F0020388
:100FB000E38272B6637E03B3626B936BD16B0B44B7
:100FC000116C506C0B44916C03440B44D16C0B447A
:100FD000C3F34E0343F40043D362936DD16D0B44CE
:100FE000116E506E0B44916E03440B44D16E0B4452
:100FF000C3F34E0343F40043136362B6A37E00229F
:10100000627603B910BD02212046FFF713FF637E0D
:1010100003BB636B590101F1844201200021C2F836
:101020001001C2F88011C2F88401627E022184F8A6
:10103000241092B95B0103F18443002201200421B2
:10104000C3F88804C3F88424C3F8802484F82010EB
:10105000A27610BDFFF790FFDBE72046FFF78CFF7D
:10106000636BE7E738B5C37E8B4212D0437E0446FC
:101070000D460BBB092D0DD8636B5B0103F1844357
:101080000020C3F80C01FF210822C3F80801E16128
:10109000E27638BD0B2D12D90D2D1ED8636B5B0186
:1010A00003F1844300220120C3F8080140F6FF71D8
:1010B000C3F80C210C22EAE7FFF75EFFDAE7636B67
:1010C0005B0103F1844301220020C3F8080140F2D0
:1010D000FF31C3F80C210A22D9E7636B5B0103F1EE
:1010E00084430120C3F80C014FF6FF711022C3F8AE
:1010F0000801CCE738B5037E3D4A0446002B6AD18F
:10110000D36B43F00063D363626B3A483A4940F2D1
:1011100001455201658402F184420425002384F8CC
:1011200024500125E376E36184F8203084F82C30E4
:101130006376E3826375C2F89051437081F8403062
:10114000626B84F82130520102F18442C2F800340B
:1011500072B6626B6576520102F18442C2F89C3429
:10116000C2F89854C2F89C5462B60A212046FFF790
:1011700079FF637EA5769BBB636B5B0103F18443C0
:1011800001212022C3F888142046C3F88414C3F830
:10119000801484F82020FFF74DFE637E23BB636B31
:1011A000590101F1844301220020C3F81021C3F842
:1011B0008021C3F8840184F8242072B6636B6276C0
:1011C0005B0103F18443C3F89C04C3F89824C3F87B
:1011D0009C2462B638BD136B43F00063136393E73E
:1011E0002046FFF7C9FEC7E7FFF7C6FED7E700BFF7
:1011F00000800440004007400000FA4210B500297A
:101200008262094A03630CBF39233A23017680F8CE
:101210003C300649029B436318BF11460446816374
:10122000FFF768FF204610BD3860034010600340A0
:10123000F8B5437E04460F461646EBB9636B94F847
:101240003C005B0103F1844301259D61394600F0B8
:1012500067FB94F83C3003F1604303F564431E7070
:1012600094F83C20530903F1382340339B0002F0EB
:101270001F0295401D60F8BDFFF77EFEDEE700BF50
:101280002B2907D8836A585C00F01F001F3818BF4D
:101290000120704700207047836A5A565B5C002A21
:1012A000426B4FEA421202F18442B4BF0021012195
:1012B000C2F8901172B6416B4A0102F1844203F008
:1012C0001F039269003A18BF012203EB82130B60DF
:1012D00062B670472B2938B504462FD8836A5B5C09
:1012E00003F01F031F2B0D4628D0437E002B2CD16B
:1012F000636B5A0102F1844202F58062D269003ABE
:1013000018BF012222756AB172B6636B19689A68B8
:10131000E2602160D9681A6A5B6AA3602161626039
:1013200062B6636B5B0103F1844300222046C3F87D
:101330008C242946FFF7B0FF012038BDE38A9BB219
:1013400043F004030020E38238BDFFF715FECFE72A
:10135000704700BF704700BF704700BF704700BFB5
:10136000704700BF38B5064CA4F1600554F8083C3E
:101370002046DB68183C9847AC42F7D138BD00BF27
:101380006092FF1F2DE9F043036887B00446904642
:10139000002B3ED000229A600122DA60294DDFF84E
:1013A000A8901D442D1151F8083B009305EB45060C
:1013B000F60002A85B68984706F1080759F806305E
:1013C0004F443846DB689847009B204A009202A9A8
:1013D00049F8063038469B689847009B02A8DB68AE
:1013E000984723681A49C3F8008003229A6005F1E0
:1013F0004402531103F1382320796854403301200B
:101400009B0002F01F0200FA02F21A6007B0BDE86A
:10141000F083104AD36B43F40003D36300BF0E4B39
:1014200001221A6003F580730C4A03609868002853
:10143000B4D0103393422360F8D10020206007B06D
:10144000BDE8F083008FFCBF1092FF1F2C3B000013
:1014500044E400E000800440007003404071034019
:101460000368002B3DD02DE9F0471E4CDFF8789043
:101470001E4A1C44241104F14406731104EB440475
:10148000E40003F1382386B060339F004FF0010A77
:1014900059F80430009204F1080806F01F06144AB7
:1014A00002920AFA06F6C8440546DB683E604046EA
:1014B0009847009B0F4A009249F80430404602A921
:1014C0009B689847009B02A8DB6898472A6800231E
:1014D0009360C2F80CA0C7F800612B6006B0BDE8AD
:1014E000F0877047008FFCBF1092FF1FBC3A0000CE
:1014F000511300002C3B00000448054A50F8083BFB
:1015000001211B68C2F80C11184700BF1092FF1F81
:10151000007003400448054A836901211B68C2F832
:101520001C112030184700BF1092FF1F00700340AD
:101530000448054A036B01211B68C2F82C1138309E
:10154000184700BF1092FF1F007003400448054A6F
:10155000836C01211B68C2F83C115030184700BF52
:101560001092FF1F00700340084B0948094A0A49BE
:1015700010B40A4C1C6098609C6118621C639863EC
:101580009C64186510BC002001F07EBA1092FF1F09
:10159000511300002087FF1F65130000BC3A0000B4
:1015A00038B52A4C2A4D01E001F08EF8636A1B061B
:1015B000FAD46B6A13F08003F6D172B625490A7823
:1015C000002A40D0A26BE06B0244206C0244606CA5
:1015D0000244A06C0244E06C0244C2F34E0242F4A6
:1015E0000042E262A26DE06D0244206E0244606E31
:1015F0000244A06E0244E06E0244C2F34E0242F482
:1016000000422263AA6BE86B0244286C0244686CB7
:101610000244A86C0244E86C0244C2F34E0242F455
:101620000042EA62AA6DE86D0244286E0244686EC8
:101630000244A86E0244E86E0244C2F34E0242F431
:1016400000422A630B7062B638BD00BF00B0034091
:1016500000B00B407492FF1F2A4B2B4A6020E121FF
:101660001870597013782948082B34D00A2B20D0D1
:101670000C2B274B0CBF35213D2112228160C2600B
:101680009960DA60234B21491B78214ACBB10123B1
:101690000B621362204B1D491B781D4A012B13D985
:1016A000042B1BD884234B6253621C4B01221A70FB
:1016B0007047174B392113228160C2609960DA604C
:1016C000E0E70B621362E5E780234B625362134B42
:1016D00001221A7070470E4B0121ECE7082B06D847
:1016E00085234B6253620D4B01221A707047102BF9
:1016F00094BF862387234B625362084B01221A70E2
:10170000704700BF004007406887FF1F00B00340DC
:1017100000B00B407292FF1F6987FF1F7492FF1F7A
:10172000282829D8304B2DE9F0411E5CFF2E53D0DC
:101730002E4B1B7813BB340624D472B62C4C2D4D83
:1017400001272E60277062B672B62B68180609D47E
:101750002378002BF5D062B600F0B6FF72B62B6886
:101760001906F5D5234A00231069237062B6224B6F
:101770001B781841BDE8F08100207047FFF710FF8B
:101780003406DAD572B61D4D1D4C06F0400801270F
:1017900006F03F06E368B8F1000F20D023F01003F5
:1017A000E36026602F7062B672B623681A0609D409
:1017B0002B78002BEED062B600F086FF72B623685D
:1017C0001B06F5D50E4A002310692B7062B60A4B32
:1017D0001B781841BDE8F0810020BDE8F08143F09E
:1017E0001003E360DDE700BF3C3B00007492FF1F85
:1017F0007092FF1F00B003407392FF1F7192FF1F92
:1018000000B00B400B4A0C49D36A43F48053D362B7
:101810000B784BB1094B802283F82120074B80F3D2
:101820000C0000B218807047044BC02283F82120BE
:10183000F4E700BF008004407292FF1F00C00C401C
:1018400008B5FFF781F9FFF73DFA00F03DFFFAE731
:1018500008B50F4C636B58030DD4636B59050FD457
:10186000636B1A0511D4636BDB04F3D500F012F837
:10187000636B5803F1D500F0A7FA636B5905EFD5F8
:1018800000F008F8636B1A05EDD500F003F8EAE7FD
:101890000080044008B5FFF7DBFF00BF014B1022BA
:1018A0001A80704700200540704700BF094A08B5FC
:1018B0000346106833B169460344A1F580518B4259
:1018C00001D2136008BD01F00DFF0C2303604FF03F
:1018D000FF3008BD6C87FF1F01F0D6BB10B40F4B63
:1018E00053F8302092F880422CB1012391B182F854
:1018F000803010BC704703EBC0035B681A6821B9E5
:1019000022F0020210BC1A60704742F0030210BCC1
:101910001A60704782F8003110BC7047683B0000C5
:10192000024B103043F82010704700BF0082FF1FA9
:10193000034B002210215A615A60186059617047A8
:1019400000D00340704700BFF0B54FF0E0244FF4E3
:1019500000054FF0807CC4F80851C4F808C14FF06E
:10196000007CC4F808C11D4A1D481E494FF0806C18
:10197000C4F808C1282300274BF6FF7609254FF04D
:10198000006CC4F808C183B057609660D36053619F
:10199000D3615362D3625363D3635364156047606A
:1019A0008660C360436105604F608E60CB604B61B1
:1019B0000D60FFF751FEFFF7C5FF0B4C2368009346
:1019C000009B132BFAD900F0B9FD23680193019B0A
:1019D000B3F5967FF9D303B0F0BD00BF008003409C
:1019E0000090034000800B407892FF1F28287F4B17
:1019F00036D000291B783FDD012202FA03FC614545
:101A000010B554D2C21E012A70D9202867D01928D7
:101A100065D0774A926802FB011222FA03F3421F53
:101A20001B2A7DD8DFE812F0C600BF007C007C00D6
:101A3000B800B1007C007C007C007C007C007C0055
:101A40007C007C007C00AA00A3009C0095007C0028
:101A5000CD007C007C007C007C007C007C00D400FD
:101A600018780B2895BFC0F10C000C3801FA00F073
:101A700041FA00F0FFF7C6BE212817D85D4B53F896
:101A8000302092F8801203EBC00300293CD00121E2
:101A90005B6882F8001101204FF4A27182F8800285
:101AA00019601A6822F020021A60704770472128D6
:101AB00014D8504B53F8301091F8804203EBC00318
:101AC00044B35B6881F880204FF4A272012081F852
:101AD00080021A601A6822F020021A6010BD464A7D
:101AE000926802FB011222FA03F398E7434CA268C2
:101AF000042802FB011222FA03F270D1404BA261CA
:101B00004FF45171596310BD5B68196821F00201EF
:101B10001960C0E75B681A6842F003021A60D3E7F5
:101B20002128DBD87F29D4BF00210121FFF7D6FE71
:101B3000304B03EBC00253F83010536801244FF4CC
:101B4000A27281F880421A601A6822F020021A609C
:101B500010BD27482B4A836140F24441916010BD7B
:101B60002348284A036140F24441516010BD204897
:101B7000254A036440F24441916110BD1C48224A49
:101B8000836340F24441516110BD19481D4A83628C
:101B900040F24441116110BD15481A4A036240F2F7
:101BA0004441D16010BD1248174A036340F24441DA
:101BB000116110BD0E48144A836440F24441D16162
:101BC00010BD0D48114A83614FF45171D16410BDAD
:101BD00009480E4A03614FF45171916410BD084BDE
:101BE00022614FF45171196310BD00BF7087FF1F50
:101BF00000800340683B000000800B4000900340E1
:101C00000090044000B0044000C0044000A0044024
:101C10000346102B28BF1023034A012B38BF012392
:101C200010781370704700BF7087FF1F212806D8F7
:101C3000044B53F8303093F80002C0B270470020D4
:101C4000704700BF683B0000212820D81B4A02EBE8
:101C5000C00301295B680FD004291DD052F8300061
:101C6000002280F8802299B1022922D003290DD1C7
:101C70004FF481721A60704752F830004FF4A2722C
:101C800080F880121A601A6822F020021A607047E9
:101C90004FF480721A60704752F830104FF4A272FD
:101CA000012081F880021A601A6842F020021A604E
:101CB000704740F203121A60704700BF683B000093
:101CC00010B472B6194A1A4C042312F8011B090702
:101CD00043F0010C05D554F8331061B154F83C10B1
:101CE000B9B10433142BF0D162B6124B00221A7032
:101CF00010BC00F087BC0F4904EBC30208305060F1
:101D00000A780D4844F83300013A0A7062B610BCF4
:101D10007047084A094904EBCC030830586013782F
:101D200044F83C10013B137062B6F0E7D03C000071
:101D30000080FF1F6493FF1F88004000C800400020
:101D4000421E032A0ED81C4B400140F0100010B474
:101D5000034472B6194CA05C03281CD8DFE800F0DD
:101D60001315031870470520A05413F0080F0888B6
:101D700014BFC8228822083142EA004259601A6022
:101D800062B610BC70470320EEE708330220EBE791
:101D900008330420E8E70A4B53F8220038B1094B16
:101DA00053F82200416043F8221062B6E9E743F895
:101DB0002210044BF7E700BF0080FF1F5493FF1F62
:101DC0003493FF1F4493FF1F2DE9F04FDFF8CCA29F
:101DD000DFF8CCB285B03DE0B24D9E0805EBC607FA
:101DE000013A796813F00803D4B2A1F1080040F079
:101DF000B88055F836204FEA124C120C21F808CC66
:101E000000F0A78021F8063C41F8043CA64B53F8AB
:101E10002420002A00F00182A44B53F824205060B3
:101E200043F82400A24B33F81420944423F814C040
:101E300000F0C8FB002800F0E98117F0080F9D4B67
:101E400000F1080018BF5B46786045F8363008237B
:101E50008AF880309AF880305907DCB21BD5964B4F
:101E60001B78ABB195490A7802F0FF032AB1013B18
:101E7000DBB20B70002B00F0468391490A7802F028
:101E8000FF032AB1013BDBB20B70002B00F0EB81AA
:101E900004238AF8803014F0080200F0CC819AF80C
:101EA0009020D3B2120997D1DFF8F8919B0809EB83
:101EB000C30459F833006468C0F3830009287CD058
:101EC0000FD80138012808D87E4A158842F221002F
:101ED000854200F0FB8149F833B001238AF8943041
:101EE000B5E70D28F9D1D4E90007774D49F833B0AB
:101EF000744E764CC9F8102083B240F2816CC9F858
:101F000018202A6063454FF00102C6E900072270DD
:101F100000F2FF80B3F5D06F80F0CB82B3F5817F04
:101F200000F0268240F2DE8040F2023293427BD102
:101F300007F07F07042F00F20881020C40F00581B2
:101F4000634911F8273043F0020301F827301346A4
:101F500070E017F0080F574B18BF5B4645F8363056
:101F600075E700F04FFB5B495B4A51F82430002BCA
:101F700000F05781586841F82400115D03F1080012
:101F80007860032905D8DFE801F0120F150204215B
:101F900011551A8817F0080F14BFC823882343EA85
:101FA000024345F8363052E702211155F1E703218B
:101FB0001155EEE705211155EBE7434D2A683AB379
:101FC0004649424C0F88464894F800E00678402F76
:101FD0003B4628BF4023BEF1000F8EF0010E84F86F
:101FE00000E046F0020486F00106067009EBC4002A
:101FF000426014BFC820882040EA03401A44FB1AFC
:102000009BB249F834000B80002B00F036812A6027
:102010002C4B1A88B2F5A06F7FF45FAF9A788AF8DC
:10202000982000225A7058E7B3F5A06F40F08D80D9
:1020300000221346B6F806C02948944528BF9446A6
:1020400067460278402F28BF402742F0020E3E0428
:1020500009EBCE0846F0C806C8F8043049F83E60DF
:1020600000263B442670BCEB070782F00106067091
:1020700040F01181BCF13F0F4FF0010509D946F046
:102080000206027009EBC60225705360882349F8E6
:10209000363001238AF894301FE700BF0020074044
:1020A000C80040000080FF1F0C93FF1F1C93FF1F00
:1020B0005C93FF1F880040005893FF1F5993FF1F38
:1020C0008493FF1F2C93FF1F0093FF1FFD92FF1FA0
:1020D000C02007403493FF1F5493FF1FFE92FF1F41
:1020E000FC92FF1F802B00F08B81822B2DD107F0FB
:1020F0007F07042F29D8A74A00231380A64B13F883
:1021000027309F0740F1FC8101231370A14B02226D
:1021100090E742F2210C6345BBD01DD942F2212247
:1021200093420DD1BFB2002F82D19C4B1A689C4BB9
:102130001A609C4BC0F3074000221870134679E7E1
:1021400042F2213293423FF473AF0F238AF8C0303A
:1021500001238AF89430C0E6B3F5086F00F04A8195
:10216000B3F5106FF1D1904BC0F307400425187000
:1021700059F835301A0606D40135142D0CD059F80B
:1021800035301A06F8D509EBC5030135586808380B
:1021900000F038FA142DF2D1844A854B0292854A18
:1021A0000192854E854ADFF818820394009200253B
:1021B0001C4656F8047B2FB138467F6800F022FA9F
:1021C000002FF9D1009BD8F8007043F8045B46F863
:1021D000045C00932FB138467F6800F013FA002F9B
:1021E000F9D1029B48F8045B43F8045B0293019B1E
:1021F00023F8025B01932378023B032B00F2098151
:10220000DFE813F03F0104013F0104016D4A45F886
:10221000360013780133137019E643F82400674B36
:10222000FEE5115D022926D07FF611AE03291DD1EE
:10223000012313550BE6E0076ED4210621D4A20733
:1022400008D5614B93F888200221D2B283F8882008
:1022500083F88010E30603D55B4B102283F88020BF
:1022600005B0BDE8F08F00F00BFA11E617F0080F8B
:1022700014BF032302231355E9E53F2F98BF002223
:10228000C5E6514B80220D2183F8C01083F88020D1
:10229000A207DFD5D5E746F002060270402F09EB12
:1022A000C6003A4628BF402243601004134440F061
:1022B00088000121BA1A49F83600217055D02B60E8
:1022C000424B1A8001238AF8943006E692885AB964
:1022D0003F4AE51D14F8011B02F8011FAC42F9D179
:1022E0003C4A1268862A3CD03B4C3C482578027810
:1022F000002D85F00105257042F0020482F00102F4
:10230000027009EBC4024FF00000506014BFC822F5
:10231000882249F83420DEE52B4B30483049314CD7
:10232000022583F8945002702F480C602F4D4860AE
:102330008C600D24CD60FF200A618A6183F8C04063
:1023400001219F2483F8880083F8800083F8982077
:1023500083F88C0083F8844083F8941005B0BDE8BE
:10236000F08F234A0F201070BEE73F2FA7D890E6CA
:1023700007F07F07042F3FF6E8AE000C7FF4E5AED0
:10238000054A12F8273023F0020302F82730002212
:1023900013464FE60493FF1FC02007407892FF1FAB
:1023A0008093FF1F7C93FF1F5893FF1F4493FF1FD1
:1023B0005493FF1F5C93FF1F0C93FF1F1C93FF1F81
:1023C0003493FF1F6493FF1F00200740FE92FF1FFE
:1023D0007393FF1F7493FF1FFD92FF1FFC92FF1F5B
:1023E0000080FF1F880040007C92FF1FBC92FF1FEF
:1023F0005993FF1F484B49491B780B700B4619E650
:10240000464A00231380454B022213E64FF0010396
:102410002370434BB34204F101047FF4CAAE414E32
:10242000039CDFF80481414F00233370042518F822
:10243000013B3F4AAB541B0725D445F0020145F050
:10244000030204350023142D49F8313049F83230A5
:10245000EDD1384F25783A7842F0020009EBC00CF4
:1024600085F00106CCF80430002D4DD1882382F090
:10247000010226703A7049F8303001238AF894300E
:102480002BE52570C5E700F09DF8002832D009EB58
:10249000C5030830586049F8357000F093F808B368
:1024A00045F0010309EBC3020830506049F833B02E
:1024B000C3E7214A5368002B3FF447AE000CBFB27C
:1024C00004E013690C32002B3FF43FAE11888142C7
:1024D000F7D15188B942F4D1000A03280CBF1A7809
:1024E0001289A7E533780133337045F0010349F8C9
:1024F0003300A2E7337849F8350001333370CCE775
:10250000064B022296E500BE2670C82382F0010623
:102510003E7049F83030BCE55893FF1F0493FF1F0D
:102520001C93FF1F6493FF1FD03C000088004000F5
:10253000C0200740FC92FF1F7C3C000070B500F0FB
:102540003DFA00231A4A194642F8331002EBC30041
:102550000133142B4160F7D1164C174B606B174DAC
:1025600040F480206063C2F3072483F89C40144C3D
:10257000FF204FF0010CC2F30746120E83F8B06043
:102580004FF0E02E83F8B42083F8800083F88800B1
:10259000187483F894C0217083F884C0702385F880
:1025A00049304FF400721023CEF80821237270BD19
:1025B0000080FF1F008004400020074000E400E08E
:1025C0000021074072B60D490B68B3FA83F00B285F
:1025D00010DC4FF00042C24023EA02030B6062B6F7
:1025E000074A00EBC000C10002EBC00000235350BB
:1025F0004360704762B60020704700BF7487FF1FBA
:10260000BC83FF1F0E4BC31AB3F5587F10D20D4A7F
:10261000127872B972B60C4A0C49A2FB03230868FF
:102620004FF000421B0922FA03F303430B6062B62A
:102630007047074A1278002AECD0FFF741BB00BF71
:10264000BC83FF1F6493FF1F398EE3387487FF1F1D
:102650005893FF1F084B094A1B6810B594881BB19B
:102660001A885B88D31A1C440CB1204610BD00F0B8
:102670002BF8204610BD00BF6893FF1F5C93FF1F1F
:1026800038B50E4B1B7853B90D4C216841B103F09E
:10269000FF054B880B800420FFF752FB256038BDF7
:1026A000FFF790FF014620B1BDE838400420FFF756
:1026B00047BB044B01221A7038BD00BF6C93FF1F4B
:1026C0007093FF1F8493FF1F2DE9F843324E337838
:1026D00063B1324F3A784AB90122D9073A7043D4EC
:1026E0009A0726D400225B073A7001D4BDE8F8832C
:1026F0002B4B1A68002AF9D0EFF30582002AF5D196
:10270000EFF3108572B6186800283AD0254C21786E
:10271000002936D142691A6001232370002A37D07C
:10272000916105B962B600258368457798472570A1
:10273000DCE7DFF8748098F80020002AD2D000256A
:10274000DFF868902B4659F82340236820461B6920
:102750000135984708B12369984798F80020EBB2F3
:102760009A42F0D83378BDE7FFF774FF68B9104B91
:102770001B780BB93378B3E7337803F0FE0333707B
:10278000AEE7002DB2D162B6B0E700F015F9EEE782
:10279000084B1A60C5E700BF7887FF1F8593FF1FAE
:1027A0008893FF1F9493FF1FA893FF1F9C93FF1F05
:1027B000783C00009893FF1F70B5EFF3108272B65B
:1027C0000C4C206880B10C4E00254369236073B126
:1027D0009D6102B962B6836845779847EFF310822E
:1027E00072B620680028F0D102B962B670BD3360BD
:1027F000EFE700BF9093FF1F8C93FF1FFFF7DCBF35
:10280000024A136801331360704700BF7892FF1FBC
:1028100001B441EA000313F003036FD1403A41D3FE
:1028200051F8043B40F8043B51F8043B40F8043BAA
:1028300051F8043B40F8043B51F8043B40F8043B9A
:1028400051F8043B40F8043B51F8043B40F8043B8A
:1028500051F8043B40F8043B51F8043B40F8043B7A
:1028600051F8043B40F8043B51F8043B40F8043B6A
:1028700051F8043B40F8043B51F8043B40F8043B5A
:1028800051F8043B40F8043B51F8043B40F8043B4A
:1028900051F8043B40F8043B51F8043B40F8043B3A
:1028A000403ABDD2303211D351F8043B40F8043BDA
:1028B00051F8043B40F8043B51F8043B40F8043B1A
:1028C00051F8043B40F8043B103AEDD20C3205D3EA
:1028D00051F8043B40F8043B043AF9D204320AD0E0
:1028E000D2071CBF11F8013B00F8013B03D30B7862
:1028F00003704B78437001BC704700BF0C2A4AD369
:1029000010F0030311D0C3F10403D21ADB071CBF7C
:1029100011F8013B00F8013B07D311F8013B00F827
:10292000013B11F8013B00F8013B11F003033FF4B8
:1029300075AF30B4043AC91AC3F1040C51F8044B12
:10294000022B19D0032B0BD0240A51F8043B1D068F
:1029500044EA050440F8044B1C46043AF4D216E05D
:10296000240E51F8043B1D0244EA050440F8044BD0
:102970001C46043AF4D20AE0240C51F8043B1D042E
:1029800044EA050440F8044B1C46043AF4D20432ED
:10299000B1EB0C0130BC043AA0D3013A11F8013B71
:1029A00000F8013BF9D20B7803704B7843708B78B9
:1029B000837001BC704700BF704700BF10B584B082
:1029C00072B6174A702441200F2180231470D071F1
:1029D0009171137013781B06FCD5906862B6114B89
:1029E000114C984238BF00EB800001A938BF40006D
:1029F0000A2200F01BF801A92046002311F8012B40
:102A000001333AB10A2B20F8022FF7D11623237095
:102A100004B010BD5B00DBB2237004B010BD00BF7A
:102A200000000240809698000888FF1F01F1FF3CDB
:102A300070B56546002401E070460134B0FBF2FE3B
:102A400002FB1E03092B03F130068ABF3733F3B2B2
:102A5000DBB2904205F8013FEED2631C0022CA545B
:102A6000C8187CB162461CF8015F10F801ED8CF8C3
:102A700000E0A1EB0C030232013B521A23449A42BC
:102A80000570EFDB084670BD03460846194600F0A6
:102A9000BFBD00BF80F0004002E000BF81F00041F8
:102AA00042001FBF5FEA410392EA030F7FEA226CF4
:102AB0007FEA236C6AD04FEA1262D2EB1363C1BF84
:102AC000D218414048404140B8BF5B42192B88BFF3
:102AD000704710F0004F40F4000020F07F4018BF16
:102AE000404211F0004F41F4000121F07F4118BF36
:102AF000494292EA030F3FD0A2F1010241FA03FCDE
:102B000010EB0C00C3F1200301FA03F100F00043C5
:102B100002D5494260EB4000B0F5000F13D3B0F18D
:102B2000807F06D340084FEA310102F10102FE2AFC
:102B300051D2B1F1004F40EBC25008BF20F001006C
:102B400040EA03007047490040EB0000013A28BF0B
:102B5000B0F5000FEDD2B0FA80FCACF1080CB2EB8E
:102B60000C0200FA0CF0AABF00EBC250524218430C
:102B7000BCBFD0401843704792F0000F81F40001B1
:102B800006BF80F400000132013BB5E74FEA410384
:102B90007FEA226C18BF7FEA236C21D092EA030FF0
:102BA00004D092F0000F08BF0846704790EA010F6A
:102BB0001CBF0020704712F07F4F04D1400028BF97
:102BC00040F00040704712F100723CBF00F5000079
:102BD000704700F0004343F0FE4040F400007047AF
:102BE0007FEA226216BF08467FEA2363014642025B
:102BF00006BF5FEA412390EA010F40F4800070476E
:102C00004FF0000304E000BF10F0004348BF404213
:102C10005FEA000C08BF704743F0964301464FF04F
:102C200000001CE050EA010208BF70474FF00003AB
:102C30000AE000BF50EA010208BF704711F00043EC
:102C400002D5404261EB41015FEA010C02BF8446BC
:102C50000146002043F0B64308BFA3F18053A3F51B
:102C60000003BCFA8CF2083AA3EBC25310DB01FA62
:102C700002FC634400FA02FCC2F12002BCF1004FE6
:102C800020FA02F243EB020008BF20F00100704777
:102C900002F1200201FA02FCC2F1200250EA4C00CB
:102CA00021FA02F243EB020008BF20EADC70704711
:102CB0004FF0FF0C1CEAD0521EBF1CEAD15392EA1F
:102CC0000C0F93EA0C0F6FD01A4480EA010C4002FB
:102CD00018BF5FEA41211ED04FF0006343EA501055
:102CE00043EA5111A0FB01310CF00040B1F5000F97
:102CF0003EBF490041EAD3715B0040EA010062F146
:102D00007F02FD2A1DD8B3F1004F40EBC25008BF2F
:102D100020F00100704790F0000F0CF0004C08BF4D
:102D200049024CEA502040EA51207F3AC2BFD2F11A
:102D3000FF0340EAC250704740F400004FF0000328
:102D4000013A5DDC12F1190FDCBF00F00040704762
:102D5000C2F10002410021FA02F1C2F1200200FAA0
:102D600002FC5FEA310040F1000053EA4C0308BF67
:102D700020EADC70704792F0000F00F0004C02BFB8
:102D8000400010F4000F013AF9D040EA0C0093F033
:102D9000000F01F0004C02BF490011F4000F013B8D
:102DA000F9D041EA0C018FE70CEAD15392EA0C0FFB
:102DB00018BF93EA0C0F0AD030F0004C18BF31F066
:102DC000004CD8D180EA010000F00040704790F03C
:102DD000000F17BF90F0004F084691F0000F91F0E0
:102DE000004F14D092EA0C0F01D142020FD193EAA6
:102DF0000C0F03D14B0218BF084608D180EA01002E
:102E000000F0004040F0FE4040F40000704740F009
:102E1000FE4040F4400070474FF0FF0C1CEAD052D7
:102E20001EBF1CEAD15392EA0C0F93EA0C0F69D033
:102E3000A2EB030280EA010C49024FEA402037D09E
:102E40004FF0805343EA111143EA10130CF0004095
:102E50008B4238BF5B0042F17D024FF4000C8B4285
:102E600024BF5B1A40EA0C00B3EB510F24BFA3EB65
:102E7000510340EA5C00B3EB910F24BFA3EB910335
:102E800040EA9C00B3EBD10F24BFA3EBD10340EA8F
:102E9000DC001B0118BF5FEA1C1CE0D1FD2A3FF6D5
:102EA00050AF8B4240EBC25008BF20F0010070478A
:102EB0000CF0004C4CEA50207F32C2BFD2F1FF032D
:102EC00040EAC250704740F400004FF00003013A5E
:102ED00037E792F0000F00F0004C02BF400010F402
:102EE000000F013AF9D040EA0C0093F0000F01F016
:102EF000004C02BF490011F4000F013BF9D041EA38
:102F00000C0195E70CEAD15392EA0C0F08D142026A
:102F10007FF47DAF93EA0C0F7FF470AF084676E73D
:102F200093EA0C0F04D14B023FF44CAF08466EE716
:102F300030F0004C18BF31F0004CCAD130F00042E4
:102F40007FF45CAF31F000437FF43CAF5FE700BF3C
:102F50004FF0FF3C06E000BF4FF0010C02E000BF65
:102F60004FF0010C4DF804CD4FEA40024FEA410307
:102F70007FEA226C18BF7FEA236C11D001B052EABD
:102F8000530C18BF90EA010F58BFB2EB030088BF83
:102F9000C81738BF6FEAE17018BF40F001007047F2
:102FA0007FEA226C02D15FEA402C05D17FEA236CD4
:102FB000E4D15FEA412CE1D05DF8040B704700BF1B
:102FC000844608466146FFE70FB5FFF7C9FF0028B2
:102FD00048BF10F1000F0FBD4DF808EDFFF7F4FFEB
:102FE0000CBF012000205DF808FB00BF4DF808ED84
:102FF000FFF7EAFF34BF012000205DF808FB00BFA7
:103000004DF808EDFFF7E0FF94BF012000205DF8C8
:1030100008FB00BF4DF808EDFFF7D2FF94BF012079
:1030200000205DF808FB00BF4DF808EDFFF7C8FF72
:1030300034BF012000205DF808FB00BF4FEA4002CA
:10304000B2F1FE4F0FD34FF09E03B3EB12620DD9D6
:103050004FEA002343F0004310F0004F23FA02F040
:1030600018BF404270474FF00000704712F1610FE7
:1030700001D1420205D110F0004008BF6FF00040BE
:1030800070474FF000007047024B0146186800F08F
:1030900003B800BF508DFF1F2DE9F04F01F10B0663
:1030A000162E83B0044624D8102900F2BA8000F00E
:1030B000A3FA102618220220B54F3A44A2F10801C3
:1030C00053688B4200F0BA805A68D96822F0030234
:1030D0001A449D68E9608D60516841F00101204605
:1030E000516003F1080500F08DFA284603B0BDE8F1
:1030F000F08F36F0070600F19480B14200F2918023
:1031000000F07AFAB6F5FC7FC0F09A81730A00F0FD
:103110008F80042B00F26F81B30903F1390003F1B2
:10312000380CC3009A4F3B44A3F108055B689D42ED
:1031300006D10CE0002980F22781DB689D4206D091
:103140005A6822F00302911B0F29F3DD60463D69A6
:10315000DFF840C265457CD06A6822F00302931B09
:103160000F2B00F37B81002BC7E904CC80F26C812C
:10317000B2F5007F80F01A81D308796801334FEAF5
:10318000521E012202FA0EF20A4357F833E0C5F844
:1031900008E007EBC3010839E9607A6047F833506B
:1031A000CEF80C50831001219940914257D811421A
:1031B00006D120F003004900114200F10400FAD0CA
:1031C00007EBC0094D468646D5F80C80454508D129
:1031D0001DE1002B80F22481D8F80C80454500F0D9
:1031E0001681D8F8042022F00302931B0F2BF0DD88
:1031F0002046D8E9025408EB060146F00106C8F85B
:103200000460EC60A56043F00104C7E90411C1E962
:1032100002CC4C6048F8023000F0F4F908F10805DF
:1032200002E00C2323600025284603B0BDE8F08FA0
:103230004FF4007340204FF03F0C73E7D3689A427D
:1032400008BF02307FF440AF3D69DFF848C16545F3
:1032500082D17A688310012199409142A7D9BD6833
:103260006B6823F003094E4503D8A9EB06030F2B27
:103270007ADCDFF824B1494BDBF800201B6801320F
:10328000334405EB090A00F0338103F580530F3313
:1032900023F47F6828F00F084146204600F010FA1A
:1032A000411C024600F0F380824500F2EE803C4B68
:1032B000196841441960084600F04E81DBF800109F
:1032C000019301311BBFA2EB0A010918CBF80020C2
:1032D000196012F0070B00F01781CBF108010A44C6
:1032E000CBF5805190440831A1EB0801C1F30B0AE2
:1032F00051462046009200F0E3F9421CDDE900232C
:1033000000F04F81801A00EB0A081968BA6048F093
:1033100001005144BD425060196000F02981B9F1AB
:103320000F0F40F227816868A9F10C0C2CF0070CF4
:1033300000F0010040EA0C0068604FF0050E05EB5C
:103340000C00BCF10F0FC0E901EE00F232815068B1
:103350001546144B1A688A4238BF1960124B1A6816
:103360008A4238BF196094E0AA1943F0010346F07D
:1033700001066E602046BA60536000F043F90835DC
:10338000284603B0BDE8F08FD9681A44A1E600BF13
:103390002088FF1F2888FF1F288CFF1FDC93FF1F3A
:1033A000AC93FF1FD493FF1FD893FF1FB2F5206F7C
:1033B0004FEA522363D3142B00F2B78003F15C0170
:1033C000C9005B3307EB010E7958AEF1080E8E454C
:1033D00000F091804B6823F00303934202D989687F
:1033E0008E45F7D1D1F80CE07A68C5E9021ECEF817
:1033F0000850CD60D6E6142B59D9542B00F29D808D
:10340000330B03F16F0003F16E0CC3008AE60EF17B
:10341000010E1EF0030F05F108057FF4D5AE51E053
:10342000424445465368D8F80C1043F001035360FA
:1034300055F8083F2046D9608B6000F0E3F8F3E6CA
:10344000F00806F1080237E62A442046536843F0A4
:1034500001035360083500F0D5F8E5E6A9192046C8
:1034600046F0010643F001046E60C7E90411C1E9AA
:1034700002CC4C60AB5000F0C5F80835D4E6930997
:1034800003F13901C90038339CE7BD425FD0BD6804
:10349000686820F003084645A8EB060302D80F2B06
:1034A0003FF762AF204600F0ADF80025BCE603F11F
:1034B0005C0003F15B0CC30034E659F808394B4556
:1034C00040F0968010F0030F00F1FF30F5D17B68DB
:1034D00023EA01037B60490099423FF6C0AE19B967
:1034E000BDE649000EF1040E1942FAD0704667E6B7
:1034F00003F11008D0E69A104FF001087B6808FA33
:1035000002F21A437A6070E702EB08014942C1F304
:103510000B0A51462046009200F0D2F8431CDDE928
:1035200000237FF4EFAEDA46EFE6542B25D8130BD9
:1035300003F16F01C9006E3344E7B3F5AA7F25D8C4
:10354000F30B03F1780003F1770CC300EAE5294B94
:10355000186840441860B1E6CAF30B0CBCF1000FC8
:103560007FF4ACAEBD68C84448F001006860F0E686
:103570001546EEE60123536094E7B3F5AA7F23D8FE
:10358000D30B03F17801C90077331BE740F25452A3
:10359000934223D8B30C03F17D0003F17C0CC300EC
:1035A000C0E5ABF1080BD844A8EB02084FF0000AC5
:1035B000ABE605F108012046009300F065F9BD680F
:1035C000009B68681968C4E640F254518B420BD8DE
:1035D000930C03F17D01C9007C33F3E64FF47E7355
:1035E0007F204FF07E0C9DE54FF47E717E23E9E64F
:1035F0007B6870E7AC93FF1F014800F09DB800BFE7
:103600002095FF1F014800F099B800BF2095FF1FCB
:1036100013460A460146022000F092B8830730B5EF
:1036200048D0541E002A3FD0CAB2034601E0013CF4
:103630003AD303F8012B9D07F9D1032C2DD9CDB234
:1036400045EA05250F2C45EA054536D9A4F11002B7
:1036500022F00F0C03F1200EE6444FEA121C03F196
:10366000100242E9045542E9025510327245F8D180
:103670000CF1010214F00C0F03EB021204F00F0C1A
:1036800013D0ACF1040323F003030433134442F8D2
:10369000045B9342FBD10CF003042CB1C9B21C446F
:1036A00003F8011B9C42FBD130BD64461346002C3D
:1036B000F4D1F9E703461446BFE71A46A446E0E70B
:1036C00038B5074D0022044608462A60FEF7EEF89A
:1036D000431C00D038BD2B68002BFBD0236038BDC5
:1036E0001895FF1F014B1868704700BF508DFF1FD2
:1036F00070B50D4E0D4D761BB61006D0002455F852
:10370000043B01349847A642F9D1094E094D761B76
:1037100000F0E0FAB61006D0002455F8043B01345E
:103720009847A642F9D170BDE03C0000E03C0000A3
:10373000F03C0000E03C0000704700BF704700BF55
:103740002DE9F047DFF874A00646DAF80000984645
:103750000F469146FFF7F0FF194B1C6824B36568CC
:103760001F2D24DC5EB96B1C0235DAF800006360A3
:1037700044F82570FFF7E2FF0020BDE8F08704EB76
:1037800085010123C1F88890D4F88821AB401A4301
:10379000022EC4F88821C1F80881E4D1D4F88C2124
:1037A0001A43C4F88C21DEE7064C1C60D7E7DAF830
:1037B0000000FFF7C3FF4FF0FF30DEE7548DFF1F1F
:1037C000B496FF1F2495FF1F024B13B1024800F06F
:1037D00005B8704700000000953A0000002301463C
:1037E0001A461846FFF7ACBFF8B5244F0C460646FC
:1037F000FFF702FFBB685D68C4F57E610F3125F0FD
:1038000003054B1923F47F6323F00F03A3F58054C2
:10381000B4F5805F07DB00213046FFF751FFBB683E
:103820002B44984204D03046FFF7ECFE0020F8BD50
:1038300061423046FFF744FF01300DD0104ABB68AB
:103840002D1B45F001055D60136830461B1B13609E
:10385000FFF7D8FE0120F8BD00213046FFF730FF0A
:10386000BA68831A0F2BDEDD43F001035360054B6A
:1038700003491B68C01A0860D5E700BF2088FF1FF6
:10388000AC93FF1F288CFF1F002961D0F8B50C46B0
:103890000646FFF7B1FE54F8042C7B4FA4F108054F
:1038A00022F0010105EB010CB868DCF8043060453A
:1038B00023F0030300F08B80D207CCF8043032D41D
:1038C00054F8082CAD1A1144AA6807F10800824286
:1038D0006AD00CEB0304D4F804E0EC68D4601EF06A
:1038E000010FA26000F0978041F001036B60CCF8FB
:1038F0000010B1F5007F35D27868CB080122490964
:1039000001338A40024357F833107A6007EBC30251
:10391000083AC5E9021247F83350CD603046BDE899
:10392000F840FFF76FBE0CEB03025268D00710D4CB
:10393000194407F10800DCF80830834273D0DCF842
:103940000C20DA60936041F001036B606950D0E7AE
:10395000704741F00103B1F5007F44F8043CCCF816
:103960000010C9D3B1F5206F4FEA512348D28B091B
:1039700003F1390003F13802C300F818FB58083886
:10398000984259D05A6822F003028A4202D99B68B1
:103990009842F7D1D868C5E902308560DD603046CD
:1039A000BDE8F840FFF72EBE0CEB03025268D207C9
:1039B00063D40B44DCE90212CA60916043F0010257
:1039C0006A603046EB50BDE8F840FFF71BBE0B4481
:1039D000D10707D454F8082CAD1A1344D5E90212C4
:1039E000CA60916043F001026A60284ABD601268B3
:1039F0009A4293D8264B30461968FFF7F5FE8DE7BB
:103A0000142B0AD9542B1FD80B0B03F16F0003F1B1
:103A10006E02C300B1E719448DE703F15C0003F1C6
:103A20005B02C300A9E741F00103C7E90455C5E9FA
:103A300002006B60695071E779689210012404FA02
:103A400002F20A437A60A6E7B3F5AA7F06D8CB0B49
:103A500003F1780003F17702C3008EE740F254527D
:103A6000934206D88B0C03F17D0003F17C02C30066
:103A700083E74FF47E737E227FE741F001036B60A2
:103A8000CCF800104AE700BF2088FF1F2C8CFF1FD6
:103A9000DC93FF1F38B5074D074C2C1BA41005D035
:103AA000013C55F8043D9847002CF9D1BDE8384059
:103AB00000F01EB9000000000000000059040000E2
:103AC0005D040000650400006D04000022802403F2
:103AD00022032480050E08090D0C06070F040013AD
:103AE000031F050E08090D0C06070F041F1F1F1FDB
:103AF0001F1F1F1F1F1F4053435F1A16171B1D1E3A
:103B00001F1F08091F1F1F1F1F1F031F00131F1F39
:103B100008091F1F1F1F1F1F1F1F8505040607847D
:103B20001F1F435F40531A121F1B1D1E5513000019
:103B3000591300005D13000061130000050E080911
:103B40000D0C06070F0400130393050E08090D0C56
:103B500006070F04FFFFC585848687C4FFFF001397
:103B600003931A9217FFFFFF4008FE4340A0044052
:103B70004408FE4344A004400018FE4300C0044033
:103B80003000FE43309004403400FE433490044043
:103B90001C18FE431CC004401018FE4310C0044013
:103BA0000818FE4308C004400C18FE430CC0044033
:103BB0000C10FE430CB004401010FE4310B0044043
:103BC0001810FE4318B004401C10FE431CB0044003
:103BD0001410FE4314B004400418FE4304C0044013
:103BE0000010FE4300B004400008FE4300A0044063
:103BF0000408FE4304A004400C08FE430CA004404B
:103C00000808FE4308A004401418FE4314C00440F2
:103C10001818FE4318C004400410FE4304B00440CA
:103C20000810FE4308B004401400FE431490044002
:103C30004C08FE434CA004400420FE4304D0044042
:103C40002410FE4324B004402010FE4320B0044062
:103C50002810FE4328B004402C10FE432CB0044032
:103C60000020FE4300D004404808FE4348A0044022
:103C70001000FE431090044000FFFFFF0001000011
:103C8000C087FF1F12000000000200007C87FF1F9A
:103C90004300000000030000D487FF1F0000000065
:103CA00001030904D887FF1F000000000203090474
:103CB000F087FF1F00000000030309040888FF1FAE
:103CC00000000000000000000000000000000000F4
:103CD00000151915F8B500BFF8BC08BC9E46704722
:103CE000C937000035040000C90C00006915000048
:043CF000F8B500BF64
:103CF40000000000000000000000000000000001BF
:103D0400FF0000FF0000000100FFFFFF010000FEB4
:103D14000001FF0100FF01FF0000FF01000101009D
:103D240000010200FF000003FFFF0302FFFF02FE89
:103D3400FFFF00FFFE020100000101000306010174
:103D4400040606010203030805040504050404012E
:103D540001FEFDFBF7F9FBF5F7F7F4F7F5F5FCF3D6
:103D6400FCF5F2070402F4F8FF0200F70B00FD0B68
:103D7400070A050212100605180E00130F1208FD9B
:103D8400040906FC02FEF502F9F2FAF5F601F4F074
:103D9400EFF1FBF7EEE7F7F4EFF3EDEDF3EAF4EF11
:103DA400EAF6F6FCF8F6FE0408FD05080F13031006
:103DB4001D150C181A0E1915170E141E19161A159E
:103DC40013121C1C0A0A17150AFE0401FF0800013D
:103DD400FBFAF8F4F2EDECE8E3D8DDE1DCD8D6E266
:103DE400DCDCDADCEAE8E9E5EEF3F4FCF8F8FE03FF
:103DF400020705050E0F0D0B0F0D0800FB00FEF961
:103E0400F7F2F2F3F1F6FAFF01060A0F1922242958
:103E14002E35393D404447494D4D4A4643413E3B8A
:103E24003935312C251C160F03FEF4ECE8E8DDD1FE
:103E3400C7C2BEB7ACA6A2A6A5A5A09E9D9D9B9EEB
:103E44009F9D9EA2A7ABB2B1B6BBC2C9CED4DAE0E5
:103E5400E9F3F9030E16202A313C454C4F525858C9
:103E64005F606264646363645E5A55524E48453DC4
:103E7400373029231D18120B02FFFAF7F1E9E8E69F
:103E8400E4E7E7E3E6EBEDF1F5F7F8F9FAFCFDFD1D
:103E9400FCFAFAFBF7F5F5F3F0F1F1ECEFF0EBEFE8
:103EA400F3F0F2F5F7F8FCF8F9FCFBFCFDF8FAFA8C
:103EB400FEFDFDFDFD00010202000406080A0D11CD
:103EC4001211141719161312140F0E0D0A080302F7
:103ED40001FDFAF8F5F3EFEDEFECE9E8E9E8E4E4E5
:103EE400E3E2E0E1E1E0E1DEE0DFDEDFDFE1DFE1CC
:103EF400E3E1E1E2E5E4E3E6E5E4E2E8ECE5E1E67A
:103F0400EAE6E3E3E4E8E6E6E9ECEAECF0EFEFF016
:103F1400F2FCF8FAF6FE07FF030207100C0E0D1769
:103F240018131A1E1F1D1F252626272A2D2E30334F
:103F34003630323C3B3A3A3A3B403C3A3A3C3C3CE1
:103F44003B39393938393736323433322E2C2E2234
:103F54002525211F1F1B110E150F0507020002FA4C
:103F6400F7F9F2EDECEBE2DFE0DAD9D5D1CDCCC94B
:103F7400C6C9C8C2C9C5C8C5C6CACDD3CECDD5D891
:103F8400D5D6DCDBDFDCD5E3E4DDE3E0E9DDDEEB45
:103F9400E4EADFE6E0E5E8E4E5E7EAE2E6EAE4E7C6
:103FA400F1E9E7EDF7F4F0EEF2FF020801FB08187F
:103FB4000E090E19101A13171D1B1C1C171B1E2784
:103FC400180E1A1B1814150F0B0F14110D0C0C15C9
:103FD400191313120F111B1C1A1E221D222922262B
:103FE4002927232C2B262128292C2E201D282A2260
:103FF400191B1917150F08021005FEF4F8FCEEED55
:10400400F4E3E7EAECE9DCEAEDEFE6E6F0EAF5EF03
:10401400E7EDFAF8EFF9FFF3F8F7F5FCF7FAF6F83D
:10402400F6FBFEF8F6F2F9FDF7F3F3F8EEE6F4F238
:10403400E9E7E4EBE4E7E5E5E4E0E9E1E0E7E8DA31
:10404400D8DFE8F2DAD9EBEBF0E1E8E1E7F3EDE40D
:10405400E6EEF3F1F0EDF7FDF3F4F6FBFBFD01F30F
:10406400040BFE01FDFE0208060305040A1311FCFD
:1040740000170F06010E07040C110E0E130F1C146B
:1040840011171715171A1612130F0E16140C0D0B01
:104094000A04000605FEF9F9FF01F6EFFE02FAFB39
:1040A400FAFBFDFBFCFDFEFEF801FDFD0307010626
:1040B4000B030A0C09060912120F16080B16141327
:1040C4000A0F111A160D0D0F19180F030B141312E2
:1040D400060713150E0E0B101514110B0B171C0CE1
:1040E4000E0D161410121117180D161014191110A4
:1040F40016110E14141112120D0A100D080F0FFED2
:10410400010904030303FA0205FBFB00F5F70800A9
:10411400ECF906FBF8F3FCF6FD01F0F5EDF5FAFB1E
:10412400EFE8EBECEEE8E0DBE0E7D9DADECFD4D57C
:10413400CFCCD4CDC6D2C8BCCCCFCAC6CFD2CBCDBF
:10414400CFDAD9DBDAE6EDDED9F4F5ECFA02F9FDE3
:104154000907040B0F091414111B16111E1E141445
:104164001C1F1612170A15170E0C0714100A050B3C
:10417400080D0A0809FB04090600000105FF03FCF9
:10418400F8F7FCF8F301F9F6F7FFFFFE00F3F9097D
:10419400FAF9F8F9040300FF00FAFF08FBFD000038
:1041A40005FAF8FD0605FD0203FD090907020A07E1
:1041B400020C120E0C0A051A1C14120B1220220EE9
:1041C40006151814120F0D0E0D140B070B080C0412
:1041D4000606050D0A00FF020F08FAFEFF04090592
:1041E40002FF0204000202FA0C13FDFB060D04FF99
:1041F40001010B0DFA020901FFFF05FE02FEFDFDA0
:10420400F8FAF6FDFAF2FCFCF4F5F8EFF2FAFAF13A
:10421400EEEFF2F4F0ECF1F7EEF1F3F4F4F6FCF86F
:10422400F0FAFEFAF9FFFCFA02FDFD00FDF7F8F4DE
:10423400F3FAFDF0EEF2F4F2EFF0E5F1F8F0F2F358
:10424400F5F6FEF8F0FFFB010BF9FB040D01FD0987
:10425400090608100E01090D0E09050A0D090607C5
:104264000804050904010005FF0303FBFF06FCFB2A
:104274000401FBFDFDFE0606F7FF0903070A00FE25
:104284000A0B0C0C09060A1314080B0F10150D0F5A
:10429400131411111713081011120A091007080D2D
:1042A400080B09FC0006FDF5FD0303FFF4F6FBFD16
:1042B400FCF3FAF8F2FAF9F1F0F5F2F5F5F3F0EEB1
:1042C400EDF1EDF6F2E8EFF2F7F4ECEDF8F8F9F7CA
:1042D400F9FCF1F900F7FAFBFC0005F7F405FAFC28
:1042E40000FF03FB0A00FC0608070B0C020A130F6D
:1042F400090F1012160F121B170A1420170C16168A
:1043040016181412160F0E111817050B0E0E0B0AA1
:1043140005050E0A000B0A0A080AFCFF0E02FA0140
:10432400FBFA0805F5F0FBF9F9FDF7E7F0FBE5F317
:10433400F8DEE2EFEAE7EBEAE5E5E6E8EAE9DADA0D
:10434400EFEBE6E1E5E8EBF0E5E5F0F1EEEDEFEAC1
:10435400FAFBF2EFFBFAF902FEF502080503FC038F
:10436400071000000A0A0A0A09FA071408020AFEDA
:10437400060B04FC0308070C0FFFFC0C0B0B0706D1
:10438400030A1203FF0D0505020602FA02FBFBFEF7
:10439400F8F9FAF3EEF8FBEBE4F4EFEFF5EDEBF1FB
:1043A400F8EDEAF7EEF3FDF7EDF602FCFAFC05078B
:1043B4000200FB0E100A0C08061216160E0F171C2C
:1043C4001C171B1B1E1B1D1F12222119151E2A1927
:1043D400101E1F191C2410141E0D1E150D0D1A126B
:1043E4000513120A070607FF01060004FAFD02FC82
:1043F400F5F2F8F6F8F9F4EDF3FAF7F0F6E4E9FC7F
:10440400F4F0E8F3F3F7F7EFF4F5F8F5F5FAEFF96C
:10441400FEF4F6F8F9FAF8F7F9FAF3F5FCF3ECF32D
:10442400FCFEF1F6FAF4F4F7F9F0FBF1FA03F1F516
:10443400FCFAEEEFFEF3E8FAF8ECEFF9FAEDEDEF43
:10444400F5F8EEEBF5FBF0E9F6F7F2F0F4F7F4012A
:10445400FAF5FDFFFFFA0B04FD0B0B0F0C040D1313
:1044640016120E100D16151A120F18181611121412
:10447400161511131207100D0911130A0503030A67
:104484000701FE0106FCFD0AFAFD0A09F5F409FF1D
:10449400FFFDF9FE0207F9F2FBFE0300F5F1FA074E
:1044A40000F9FCF9FEFEFDF9FA04FAFE02FAF9033A
:1044B4000101F9FFFD0403F90203050504FF020AE3
:1044C400060D0E0508070F080A0B030A0108080366
:1044D4000D02FE000400FE02FC03FFF9FDF8F8FCE7
:1044E400F9FEF2F4FDFFF0ED00F7F2F9F0EFF3FA64
:1044F400F8EFF6F6F5F3F2F7F3F7F4F7FAF1F6F46A
:10450400FAFFF8F9F7FBFF0203F7FF0506050204BB
:10451400030A0A0205090B07070D0B0909090D0611
:104524000B06040C0807040507060AFFFE05070529
:10453400FF04010507FFFF000500FE0303FEFDFD68
:1045440001FF0300F6FCFE01FDFB00FEFDFEFDFC89
:104554000001FB0100FF05FC00FF01070703FB014D
:10456400000205020602FD040404010101FB050129
:1045740001FCFC00FD02F8F9FBFCFCF5F9FBF7F487
:10458400F9F7F5FDFEF4F4FB02F9FE04F80000FD72
:10459400FE0609FE030A0908050805090E06070BAD
:1045A4000A050A0D060205050405050100FBFE08BF
:1045B40000FEFDF7FEFDFAF9FFFBFBFEF4FCFAF842
:1045C400F8F7FEF8F8FEFCFBFAFFFCFF02FB000024
:1045D400FD010105FF0302FDFF060CFEFF090401B6
:1045E400FF0A05FF06FF010605010302FF010002A1
:1045F40002FB0200FD01FFFBFB0401FAFBFCFCFCD7
:10460400FDFBF7F9F8FEFDFCFEF8FCFFFDF9FF01E8
:10461400FD03FFFE020202FF030500030705030674
:10462400030307060403020509070205030607023C
:1046340005030905030401020004FFFE0703FDF955
:10464400FF07FFFCFC0100FD02F9FC060205FEF970
:10465400FE0702F1FEFE0000F9FCFAFEFCFC00FA83
:10466400FFF7FD01FE02FEFCFF01FFFD00FE00005E
:10467400FCFFFEFFFBFE030000FFFFFE020102033E
:10468400FCFD0502FBFC0303FDFAFD0604F6F9FF3D
:1046940002FFFDFBFC050503FAFD080701FCFB0214
:1046A400030501FD0203060201FEFF03FDFB0100F9
:1046B400FDFBFD0300FAF9FF00FF00FBFCFF02FF16
:1046C400FE02FE040301FF060D0301050906010AAB
:1046D40007060A0808060907080A060A0C0703055C
:1046E4000F0B0406080A04040405060305FDFE0076
:1046F4000101F9FC00FFFCF9FFFCFE00FFFCF8FEE1
:10470400FDFBFDFC03FEFCFCFB00FBFAFAFEFFFBD9
:1047140000FDFA0003040004060407050606080762
:10472400050A0C09060306060703FE050601FEFF3B
:1047340000FEFEFAFAFFFCFBF6F8F7F7FAF5F7F2DB
:10474400F4F6F2F1F0F6F2F0F2F0F5F5F5F0F2FA33
:10475400F6F2F5F7F7F901FDF5FAFBFFFEFE0301AA
:1047640000FFFFFF0204FF020404010003FF04042E
:1047740004020002FE01030403FE0100FF00FE0028
:104784000100010200FEFFFF0100FDFF0101010124
:10479400010000000203010101010100000000000A
:1047A4000001010200FF02010503FD0B00020DF1EF
:1047B400F814190FFEEAFD12ED0C0CF0191AEEF0C4
:1047C400161115FBF11B16ED1815EEE72D0EE70576
:1047D400F40B03D50C1AF600F2F9FA00F8F703FD0E
:1047E400F603B9F8F6E507C7F7DDA909F1C700F83C
:1047F400A0CA0EFEEBE411BFE404EBED12E2E50FF8
:10480400D21423E8C61D041A21D0DE34F7EC132792
:1048140030CAFA0DFD2E070629DE083E0CE10444D9
:10482400FEF61114FEF9F918FDF20F09EBFAFDFC7E
:10483400180DFF111C09DF1F1BF41A1FFFF90619BD
:1048440008FE14F3EF0AEFFD2DEEBB1518FEF2017E
:10485400E9FFF0F0FFFAD2E01E02D9E207E6FBEE30
:10486400EDF7FDFC181BD90143091331EC05421C7B
:10487400011A231D2A261EFD1B3A3F13082A25FE72
:10488400340FF829212300F40B1CF9E6F6EEF8F1B5
:1048940003F5F6DF0814C6F0FFE804FD0107EF0690
:1048A40001DBF91DE0E80B0718F4F80BFA13150AFD
:1048B40014EA002822F3EDFC0E09E81BE1EEF8ED02
:1048C40002EFF1E0F300CEE3FF01E0E60BF6F91CA2
:1048D40009E209F90E080126FD0C3236EC2E39F5F1
:1048E4003816103D410AF04E2120F4FF391812EC1D
:1048F400EE1200F8E61DE6CE07F6E2CEF7E0ECE9AC
:10490400E303D2F413CFE3E3EB0002BEAD1319D3F8
:10491400D504EAF10208E3C327C7F604E815B8E9A9
:104924001AF001E2F8D5EA1706EFE903FF1F0BBB03
:10493400E8272F13E4ED360AD8F63C28E3061BF6E5
:10494400FA3C081727301FFB25301FEB2F10183EA9
:104954000EF51C2B21EAFA3B16E40725FDE00309BA
:10496400D1FC16EBF3FDE8F0FFD5E8E3F8E5D2F966
:10497400DBC9EFF9D4E1D2E4F1EFDEF0FCF9ECD0DD
:104984001A11E8DD181B05FEFC200C031124F1FAB2
:10499400290BE2092B33F3F624F924ECE22F09F86E
:1049A400FA1316D70D2909EFFB3206EB0E1D10FD85
:1049B400FB170BF30C081308F3FF1F15FFE0FC2192
:1049C4000808F7F7FE0E0BF8FC030BFD06FC0704C2
:1049D400F510FEF4F4ED0014F9EFF7FCEFFEFFEA36
:1049E400F7DFE6F6F2DCD70305E6DCEAEC04F6E5ED
:1049F400EAFB0101F7E9F41709020705080B00199E
:104A04001B0C08090C0E0302140F080B0D020C0CEE
:104A140001FD0E0B0304FEE50115FDFF15FCED0A77
:104A2400FAEE0913F9F9F7EA0B17FAF70D1010FD6E
:104A340000FE061411000D0DFA050BFA16000816F7
:104A4400E5EE01F403FCF9EADFED03FCCAFF02F72B
:104A5400EADCF6E4F8FE03F8E7F206F5FB070912D0
:104A6400FAF60EFB03091614FE080AFC2211FD27B0
:104A74000AF3151BF1FA12111500F50900020A08D0
:104A840004F6FD0FEFF203FCF50604E501F3F91259
:104A9400F0F60BFCF6FEEFF908010703EFF9F6FA5E
:104AA40024FBDE0F0CFAEC0306F7FFFE02F5F2F12D
:104AB4000200F800F7FCFCF2F2F60A02F302F5EE4B
:104AC4000C06F7FDFD140BE30F1AFE0A000A041C82
:104AD4000AFB080C101B05EB122504FE0D0213053E
:104AE400ED1B15F1FB1A0AE1071907F6001BDBDEC3
:104AF4002A13E6DA08F30BF1E800E5F911EDE1EA2F
:104B0400060BD7FE16EAF70BF2F70DEEF70A07F4D9
:104B140002F7F718E6F311FE04E7FE04FFF9F2F9D1
:104B2400FDF7F2FFF7FAFC06EEFFF10A15E40513B0
:104B3400EF0C0E0400111D080B051E13F01E2113AB
:104B4400F909150A130812021725FCF906070E01C4
:104B54000AF2F90A00F7E1FF0802ECF1F00FE6FCB3
:104B640013E0F30501F4F8FD1D03ECFAFA0DF8FF68
:104B740016FFE6F915FCE918FEF0FBF50F00EBF75C
:104B8400FFFAFB06F2EBF2080BDFFFFDF205EE0184
:104B940003F9E90203060CF0F10901FE08FD0BFC20
:104BA40005FFF6121FF0F50E0C10FE04051CFD0D9A
:104BB4000CE2122005031C02F703110B0B0F08086B
:104BC400F409150F00E613FDEF1BE9DF0D0DF2EDFF
:104BD40004E305F9EF15FEEAFF0104000E14F009E1
:104BE4000404FE091EEB050AFB0D07F212F3F81884
:104BF400EBFDF1F81310D5FB08D80008EA01F4E640
:104C040006EEE818FBCE0A020401DFF813F9E50FFB
:104C140001FBF30610F20108000CF9011B07F30273
:104C240014F0071DDEE505110D01F4F305FCEFFAA0
:104C340008FCF5FD0601F2FCFAFD0EFF04EEED138F
:104C440005FDF51EFFE3FC1501EF110EFFEE1BFF42
:104C5400FAFB0A0D0410F5FBF21320F4ED1C15F118
:104C6400FDFF0F1A06E011FFEC26FFF007FEFFFE22
:104C740014E8EE2300F307FEF804FF0600F8F6F14B
:104C8400FE0513F2EFFD11F6F413F6040102090612
:104C94000701050C030409F60B140CEB0507060EBB
:104CA4000906FAFFFE03FB0910F6F406FC03EF0302
:104CB4000FF7F1F70DFEF0060B01FD0306EBFB1BEE
:104CC400030B09EE07FBFE0C09010502FA040F06AB
:104CD40019E8FE3000F904F3120EFF0FECFB0E018D
:104CE400F2FA0006FBE700FFED00FEE3FF08F5F82B
:104CF400EFFAFAF5F104FBEC1BF5EB06F41003F6FE
:104D04000BF7FF0AFCF60C15F902FC0011E614245B
:104D1400F5F308020BFF010F00FD0DFDF1050B007B
:104D2400F50406FDEFFB0DFCF902F9FF030302F4A1
:104D3400FB0A09EBF80CF4FEFCF504F2F103FAF9B2
:104D440005F6E6F8FC02FEE7FC05EBF9FFF4FD00CE
:104D5400F8F4ECF802F1EE0503F2FDECEB02F6FDDB
:104D640000ECFDFEEE0409F9F9FB020AF60218064E
:104D7400FD0B0E080D0311150D0F0709121A111062
:104D8400100C160D0A1E0F05170B0F170D090A0E2E
:104D94000F0CFC011406050AF60E04040DF3030AB5
:104DA400FFFFFDF90D12EFED00F2FEF7F0FDEDE966
:104DB400FDE9E9FFF5E4F1E7F701DAEE08F9F4F5C6
:104DC400F6F7F60014F3EB04F6FD02FE0904F3FE15
:104DD400000103FAFCFB03100EE8FC0D061001F9B8
:104DE400010410100206080505140B010409150E30
:104DF400F30D1F100407050A1216060915061605F9
:104E0400FF0C1518001011F4010D0DFB0C0AFD0523
:104E1400FAF80AFAF202F6F7EA0101ECEDFEF1EB18
:104E2400F1DEFE08E6EBF6E1FAEBF203EDECFAEF65
:104E3400F004EFFD07E4F700F9F4F302FB00E700E8
:104E440006F402F0FF00EC0DFFE50B11EBED06FAA2
:104E5400F40307F2E50D09F003F0F8130FF7F70573
:104E6400FF1021FA05050E17FD0F030D180B051988
:104E740011FF130EF01B1DFC08021404F9100AFDA7
:104E8400070AFCF5F2020EFAFB06E8EA0608FFF050
:104E9400F80302FCF4EBFF0EFD02FDE6F609010146
:104EA40001FBFAFFF9FB00F9F5FBFAFEF3F10AF650
:104EB400F30FF9E20DFFF1FCFF060DFEF40C040103
:104EC400F6050AE9051DF3EB1512EBF608070E07C4
:104ED4000D03F80F05031F07061505061900062123
:104EE400080A120504FC0E240AFE07F8071B00FC3E
:104EF4000F050A0CE8FD0CFAFB030CFA00FBF5F0B5
:104F0400FE1501EAE9F208FEE9F3FCFE00FBF5F503
:104F1400FA0D0EEA0012FA060AF80B17050A01F652
:104F24000C0AF8020802F7F4FCFAFB03F8FAFEEEA6
:104F3400F704FDF7FD01F4FE0D01EB021706F8FB83
:104F4400FC0A0DFE0105FEFB0505FA0206FCFB0149
:104F540004F7F9F4F808FFFDECF50306EEEFFFF9AA
:104F6400F5FFEEED01F5EFECF20401F7F3E90409C6
:104F7400F505FFF2FDFF01FC0309050101FFFCFE3D
:104F8400FD061806E90208F9FD060A09FF0006F9FC
:104F9400FE04081004F508F9FC04120DFB02FDFFE1
:104FA400FF0306020306FAFBFB0907FF02FF05FBEA
:104FB400FD0B09FCFE04FB0D0EF9FBF1071B0BF5C1
:104FC400ECFF09080FF7EF011111F40701FF0DFFC2
:104FD4000601F41008F6F3000B08FBF002FFF8FFDB
:104FE40003F8FAFD06F6FAF9000EFBFAFB0B01FED4
:104FF40008FC050EFF0205FF02020903FA0506FE7E
:10500400FD00010205FCF90203FFFB07050204058C
:10501400FBFC08FF0303060BFEFC0A06FF0A0B0059
:10502400FA071109FF0A0D0706FE0706070A0CFD19
:10503400F50E06FCF90108FCFDF9F1F90900E7F7A2
:10504400F7F001F8EEF2F7F6FDFCECF404F9F600E3
:10505400FEF7F508FCF2FD00FDF7FD04FFFBFBF98C
:1050640002FFFDFC03F7F80901F5FA04FBFCFEFD61
:1050740002FAFC0700FA010C04F7FE0B0901080907
:105084000805000A0705080D03FA0F0C0200080EB4
:10509400020000F9FF1008EFFCFEF80600F6FAF92A
:1050A400F90602F0F507FFF80303F6F20E02F50223
:1050B40000FFFBFE08FFF9FEFE07FF010405F1F700
:1050C40016FFF0FF03FCFB01F9FCFEFD03FDF7F7FF
:1050D4000A11FCF2FE070205FF0604020FFFFF0798
:1050E400080604060EFCFC0F0A00010CFFFE060D68
:1050F40000F40605FDFEFF0601EFFE0CFEFBFFFCBF
:10510400FCFF0301F90307FAFC040402FE02091080
:10511400F9FF0B02FF0614F5F8060A02F8FBF10A80
:105124000DF9F1F4F4FB0007F5EA05FBFAFCF5F2DE
:105134000300F400FFEAFD03F9020100F7FB02F6A5
:10514400001901F00509F9060A0001031B01F10029
:10515400060C03030704F9000AFCFF1203F3011110
:1051640006FFFDF8060A0A050204FA090CFCFF1200
:1051740013FBEB000F0E00FAFCFD070104EFEE0F2A
:105184000DF8F5FEFBF00006FE07FDEEF3FE040548
:10519400FDEEF708FDF6F6FAF6FB1303E5EFFB0563
:1051A4000DFAF2F800090400F1F6070E03F605FD06
:1051B400F80308FCF71206EDFA05050A03000B0BC9
:1051C40003FE0006061407FB0A02090D0300090B7F
:1051D400FFFAFE07060309FCF90900FC0201FFFAC5
:1051E4000301FCFDFF04FC03FAFB03FAFEFEF8FDD9
:1051F40002F8F6FD01FDF8F5FD00FBF9FCF9FFFFEF
:1052040001FFF6FF05FBF70300F9FBFEFC0506FCB6
:10521400F6FD040407FEF8FD0206040401FD010284
:10522400020505FCFE07050200000001040402FD5E
:10523400FD030601FF0301FD0103010200FE00035B
:1052440001FF0100FF000000000000000000010158
:10525400FFFF02010002FFFE020400FF000003033F
:1052640002010300FD0402FC030803FAF90105012D
:10527400FCFCF70107FFE6ED1B1FF2D1F70E0C183B
:1052840002E3E8FCF4190FF405F7DA00231103D65E
:10529400DD0611F01834E7DBE20319F2111EEAEF20
:1052A4001826D8EC3EFE181BF11406CDDE250F118E
:1052B4000CCCF9E6D7241B1A00FED0BC15120FE360
:1052C400C30918F80506E8F01408E21119F80310E8
:1052D400F3FD3208F0161B0C0805FD1406E3183321
:1052E40000C90107DC2C2F03F8FE081A0D0418224C
:1052F40005E71D1FFC0A140BF5E8DEDAF7E0EEF310
:10530400DFFBFCDFCDE601F3FFFD0B170D13191DC9
:105314001F2424211D263E35291605F9F9F8E8D461
:10532400B1D2F2DACFCCCDD0E4EEEBE5EDF3E8E3A5
:10533400F70D12141C1FF6F3080F11163931241936
:105344003B19FD2107FAD7E4010C0A0D1E090205D9
:10535400FFE9E7F40301F9FBEFD7C9E2ECF2F8EB5C
:10536400E3DADEE9E8DADEF1F3EFF70002030B0C2F
:105374001415282B2433363D2E05F10C1F282E300E
:10538400322203F4C7A3C2E4F5FE02141E1C2E2F1E
:105394001A0B140EF3F5E8E6EFDFC5BBD2E5DDD951
:1053A400E0F0F7D9CDBEF7353616F8ECD4E1F504C4
:1053B400293A40290EF0E7EA0E2D37351C12180061
:1053C400EDD5D1DBD7D1E6EEFC1B2221322F132CF5
:1053D4003C2D3B362608F701050F00D4CCCFB8C4CA
:1053E400C5D00C18FFCAB2CCF1E302FFE9F20118F0
:1053F400140C253949423807EFF808F5D9E0D2CA28
:10540400CECCD7E4F32A4B3E2B1C302D13372B1D67
:1054140002F5F7010D19191219120D0C0EF7E0CE51
:10542400C2D9E3E8001D17F8D0C5E6ECED01FF0989
:10543400282C3F07FE24252D1B0CEFD7E7EDDDDAE2
:10544400D1D3CDCECDCDE7E9FD30321A00FD0B0628
:10545400FD01161926373A403325271A080808FD96
:1054640006FBCBB1B5ACCFDBDAFB09181F282C3710
:10547400351E1305F9F6E1F4F902F9E4D6E4FEF079
:10548400E8DFD6FF05F7E1E3F6F3E9DDE4F3F6023E
:105494000210302D230F2F39363018161316FAF058
:1054A400F2DCD3D6E0D2CCD9E0F30D304131373938
:1054B4002008020D02EBE0F7090A06EDD2051B07EE
:1054C400F7D0E1EDFFFDD6D0D7DDE6EBECF8091E11
:1054D4001D19152635312E332E17210FF5F401F43D
:1054E400F1F1EBF7FF02FCF2EDF5E9FAFE02F5F15A
:1054F400F5DDD9EA1C1F262D1F210D2325130A03D0
:10550400EAD9EAC2C6D4BAB9CCF5F6193822251DAF
:10551400241D0105151424292600100B1007E30887
:10552400E6F102F0F5F4CBD703DECFE20908F10E81
:105534002917ECEB04372907081B05FE0308EAE0EA
:10554400F8FB080A02DCCCD8F4F7DCFCF6FE1816EB
:105554000DEFEAFF17202411F61919111F1E12EF7F
:105564000902DEF9FCD3E1E6F4EED5DEEEF7FF172F
:10557400082420183F22132011E9E00C03FBF5F561
:1055840000E8F1FC02F7EF1700F1F3E4DCE0E7E3F5
:10559400D80413090B16251514FA182B330F081AFF
:1055A400E9F6F9EAF4E7E9E2EFFD05FDE90E07079C
:1055B400FCEA1E271222200FEAF9180C0AE7F50963
:1055C4000503F61208EFDFEAF0F8E9E9EBE4D8FCAA
:1055D4000FF61B2E3C18161109161413F904EAF2DF
:1055E400EFDAE8F3FAE1DF06130BED001605F6EC4B
:1055F400122302F50C0CFDF50E1A11FF051F06EE21
:10560400F0111A04D9E7EEE7070201E8DAEF040023
:105614000F2D2009172F210803F6F006EEF5E4D527
:10562400D2F91100E8EEFB180C091405F8DEFC10A1
:1056340000F5F6FDFF1B0EFC0123292018EDE61CE6
:1056440008F9DDD3F0E40EF9FBF1F718FF0B0CFDBC
:1056540006190DFBF6F00403FC09F0F7FBEAEDE58F
:1056640009251609DD0317F70E00F4000006E2F819
:10567400141A2418090107182212F709F1E8FCFC8E
:10568400F8D1E5F0FD00D5D7FB280CE4F8090809AA
:10569400E8F80DFDF80B01DD021C1CF1DF191D06F5
:1056A400E6141AFA04010FFFDEEC0B2310F904EEE2
:1056B40019260CFFE5FDEAF3E20818ED02100B03CE
:1056C4000509DF102008FBEFF7F205F0D5EC06EA38
:1056D4000B060827E4E4010BF5E10F1809DD0B259F
:1056E4000700ED0A0FF5FFEDEE121A03EA13EF07B8
:1056F4001CF9E2DE1D1502100C08FFF1110B050167
:105704000E06F40F00F0040A070700F500F4D5F6BE
:1057140007FCEAFE0F00ECF7E6000DFFF60F0EF8AB
:105724000818220BE7FFFB070F031300FD03F7E53F
:10573400F4E9F9F2EAFEFCEE02041103FA160D0B89
:10574400110D15FEF1130A0301EF0BF6E7050C0129
:10575400F8ED0A14F9FA0A0902070819F6F7030121
:10576400040502FAE60C07F6FAFCFBF1F1FEEEEE94
:10577400FE06F8F1F811EFF21606EEED16070F1516
:10578400141105F709050DFCF71008FBFF16F5E3E6
:105794001609EB1122FDE2E0F1060C0EF6F4F5E930
:1057A400050404FB101907F7061B04E8F8F5F8FADA
:1057B400FDEE0DFFF0FBF9F5010E1009F1DE091500
:1057C400170503FB032607EAF000E1FA030D1A04A8
:1057D400D7EE1600FDF0FFFB0512092314FA0306A9
:1057E400EAEEFD030EF9F70E02F1FDFC00000307DB
:1057F4000C0FF0FB0E1105ECF6F6000B04EEFDF6B3
:1058040004FFF5000CF6FF05F7FBFAF4060F04019C
:10581400F90400EE04F8FA0B12E9EE09020403F8A5
:10582400FB1407000B0C0E07F9060FFF020606FE19
:10583400E8FAEDF40106FEF1050C06FD0B0CF5F794
:105844000CFBF10CF3031708F2EEF6F70405FFFE68
:10585400FBFBF9000700090C04FE03110F11FE0203
:105864001708FEF6F8F3F506FBF7F6F8FAF6070064
:1058740006FCF70909FAFB0113FFEC07FFF7FD1714
:1058840001E9FC050406EFF9080715F0EA0209FB33
:10589400F0FD070102FAFD050408FFF8FE00070207
:1058A400021212F6FB00FF02F402FBF904FFF306F6
:1058B4000BF90405F70701F50006FDFD010D01F3E1
:1058C400F2F7040603F50510090A010608F4F90CB9
:1058D40004FE04040602FEF70305FAF30601FC0ABB
:1058E40005F3F80A03F6F6070AF8FA0C08F802FEBC
:1058F400FC10FFF4050502FFEAEE0B1703ECEC05C0
:105904001611EAEC121407F4F6FF070F06FDF6FB76
:105914000705EFFA090801FDF9FB060B020111075F
:10592400EDFA0E02FDFCF800080AFAEC080B0C0E66
:1059340007070A0BFBF702FA070C02F0F0FCFAFE69
:1059440003F8F9FBF7FFFFF7EE0007F3EDF70506A1
:10595400FCFE07130FF3EEFF0D0D0604F6FE03F92C
:10596400F1FD0608FAE5F70505110BF7FC02140D25
:1059740001FFF80D160DECF91106090B01F7F5FE00
:10598400FBFE02EDFC10FFFAFBF5EEF60E04F0EF61
:105994000DFDEF0D11FAF6FC031100F709F7FE17E0
:1059A40012FAEEF6FF000802FBF9FBFEF4FC080F06
:1059B400F8F2FC04FFF8030B090002FAFD0E1003D1
:1059C4000D07F5051100F204FBF50607F7FEFCF5DB
:1059D400FAFB01FAFA0A010101FB020D00F3FB02D2
:1059E400040404F9FB0709F6010DFEF5FE000B0B98
:1059F400F2F1FA0003FCFD010502FF000707F9FAC2
:105A04000A090AFEED0107060B08FC060F0003094C
:105A1400090804FB000404030601F7FDF902FBEC8A
:105A2400FC1008EAF5F8FB0603FCFAF7F905FFF6A3
:105A3400F70402FCFFFDF8FE030204FDF6FD060474
:105A4400FB010402040504080908FAFC0E0C07FF14
:105A5400060E03FBFC010404F7EFFE0207FDF40449
:105A64000C03F5F5010603F4F41001E7F7FF020750
:105A7400F9FC040900F901010D0B0400FF060502FD
:105A840004FAF4FA0400EDF5FCFAFD01F8F6FAFA6A
:105A9400FDFD020D0802FDFF0B0B090907080405B3
:105AA400040500FE04050304FAF7FDFEFDFD07FDF1
:105AB400F6F6FA01FE0801F9FC030803FE000202EF
:105AC400FDF2000E02F2FD000403F6FA03FF0102E8
:105AD400FBF9FA0100FE01FF01FEFDFF020600FFD3
